{"contracts/SwapAndAddLiquidity.sol":{"SimpleSwapAndAddLiquidity":{"abi":[{"anonymous":false,"inputs":[{"indexed":false,"internalType":"address","name":"user","type":"address"},{"indexed":false,"internalType":"address","name":"token","type":"address"},{"indexed":false,"internalType":"uint256","name":"liquidity","type":"uint256"}],"name":"Complete","type":"event"},{"inputs":[],"name":"WETH","outputs":[{"internalType":"address","name":"","type":"address"}],"stateMutability":"view","type":"function"},{"inputs":[{"internalType":"address","name":"token","type":"address"},{"internalType":"uint256","name":"slippage","type":"uint256"}],"name":"execute","outputs":[],"stateMutability":"payable","type":"function"},{"inputs":[{"internalType":"address","name":"token","type":"address"},{"internalType":"uint256","name":"ethAmount","type":"uint256"}],"name":"getTokenAmount","outputs":[{"internalType":"uint256","name":"","type":"uint256"}],"stateMutability":"view","type":"function"},{"inputs":[],"name":"router","outputs":[{"internalType":"contract IUniswapV2Router","name":"","type":"address"}],"stateMutability":"view","type":"function"},{"stateMutability":"payable","type":"receive"}],"evm":{"bytecode":{"linkReferences":{},"object":"60808060405234610016576106f6908161001c8239f35b600080fdfe6080604081815260049182361015610022575b505050361561002057600080fd5b005b600092833560e01c91848363115ece4c1461045657505081633b89bb86146100bf57508063ad5c4648146100915763f887ea40146100605780610012565b3461008d578160031936011261008d5760209051737a250d5630b4cf539739df2c5dacb4c659f2488d8152f35b5080fd5b503461008d578160031936011261008d576020905173c02aaa39b223fe8d0a0e5c4f27ead9083c756cc28152f35b90506100ca3661053d565b3415610428576103e8106103fb573460011c908351926100e984610568565b6002845260209385368683013773c02aaa39b223fe8d0a0e5c4f27ead9083c756cc2610114826105bc565b5261011e816105df565b9260018060a01b031680935261012c42018042116103e85761015c875192637ff36ab560e01b8452898585015260806024850152608484019061066b565b94306044840152816064840152888380737a250d5630b4cf539739df2c5dacb4c659f2488d980381848a5af19283156103de5789936103ba575b506101a0836105df565b519088519163095ea7b360e01b83528786840152602483015287826044818d8a5af180156103b05760609460c4936101dd92610393575b506105df565b51908951978894859363f305d71960e01b8552898986015260248501528c60448501528c606485015233608485015260a48401525af192831561031557869361035a575b5084516370a0823160e01b815230828201528481602481865afa90811561035057879161031f575b5080610288575b867f50e82f857ece413f502ecf1e6db36e3f6f1c118bb444db8409896b1bf1d11e3d606087878a88815193338552840152820152a180f35b85519163a9059cbb60e01b835233908301526024820152838160448189865af1801561031557917f50e82f857ece413f502ecf1e6db36e3f6f1c118bb444db8409896b1bf1d11e3d959160609594936102e8575b50919293819550610250565b61030790853d871161030e575b6102ff818361059a565b8101906106a8565b50386102dc565b503d6102f5565b85513d88823e3d90fd5b90508481813d8311610349575b610336818361059a565b81010312610345575138610249565b8680fd5b503d61032c565b86513d89823e3d90fd5b9092506060813d821161038b575b816103756060938361059a565b81010312610387578401519138610221565b8580fd5b3d9150610368565b6103a9908b3d8d1161030e576102ff818361059a565b50386101d7565b89513d8c823e3d90fd5b6103d79193503d808b833e6103cf818361059a565b8101906105ef565b9138610196565b88513d8b823e3d90fd5b634e487b7160e01b885260118352602488fd5b506020606492519162461bcd60e51b835282015260076024820152664d61782031302560c81b6044820152fd5b835162461bcd60e51b8152602081850152600860248201526709ccacac8408aa8960c31b6044820152606490fd5b919092503461008d576104683661053d565b919061047385610568565b600285528536602087013773c02aaa39b223fe8d0a0e5c4f27ead9083c756cc261049c866105bc565b526104a6856105df565b9060018060a01b031690526104d88551948593849363d06ca61f60e01b8552840152866024840152604483019061066b565b0381737a250d5630b4cf539739df2c5dacb4c659f2488d5afa908115610531579061050e918460209592610516575b50506105df565b519051908152f35b61052a92503d8091833e6103cf818361059a565b3880610507565b505051903d90823e3d90fd5b6040906003190112610563576004356001600160a01b0381168103610563579060243590565b600080fd5b6060810190811067ffffffffffffffff82111761058457604052565b634e487b7160e01b600052604160045260246000fd5b90601f8019910116810190811067ffffffffffffffff82111761058457604052565b8051156105c95760200190565b634e487b7160e01b600052603260045260246000fd5b8051600110156105c95760400190565b90602090818382031261056357825167ffffffffffffffff93848211610563570181601f82011215610563578051938411610584578360051b90604051946106398584018761059a565b85528380860192820101928311610563578301905b82821061065c575050505090565b8151815290830190830161064e565b90815180825260208080930193019160005b82811061068b575050505090565b83516001600160a01b03168552938101939281019260010161067d565b9081602091031261056357518015158103610563579056fea26469706673582212202d00633bd28e88fa4e9d3a9b4115c17f11c5a09bdb0665edde53b585718dbd1564736f6c63430008130033","opcodes":"PUSH1 0x80 DUP1 PUSH1 0x40 MSTORE CALLVALUE PUSH2 0x16 JUMPI PUSH2 0x6F6 SWAP1 DUP2 PUSH2 0x1C DUP3 CODECOPY RETURN JUMPDEST PUSH1 0x0 DUP1 REVERT INVALID PUSH1 0x80 PUSH1 0x40 DUP2 DUP2 MSTORE PUSH1 0x4 SWAP2 DUP3 CALLDATASIZE LT ISZERO PUSH2 0x22 JUMPI JUMPDEST POP POP POP CALLDATASIZE ISZERO PUSH2 0x20 JUMPI PUSH1 0x0 DUP1 REVERT JUMPDEST STOP JUMPDEST PUSH1 0x0 SWAP3 DUP4 CALLDATALOAD PUSH1 0xE0 SHR SWAP2 DUP5 DUP4 PUSH4 0x115ECE4C EQ PUSH2 0x456 JUMPI POP POP DUP2 PUSH4 0x3B89BB86 EQ PUSH2 0xBF JUMPI POP DUP1 PUSH4 0xAD5C4648 EQ PUSH2 0x91 JUMPI PUSH4 0xF887EA40 EQ PUSH2 0x60 JUMPI DUP1 PUSH2 0x12 JUMP JUMPDEST CALLVALUE PUSH2 0x8D JUMPI DUP2 PUSH1 0x3 NOT CALLDATASIZE ADD SLT PUSH2 0x8D JUMPI PUSH1 0x20 SWAP1 MLOAD PUSH20 0x7A250D5630B4CF539739DF2C5DACB4C659F2488D DUP2 MSTORE RETURN JUMPDEST POP DUP1 REVERT JUMPDEST POP CALLVALUE PUSH2 0x8D JUMPI DUP2 PUSH1 0x3 NOT CALLDATASIZE ADD SLT PUSH2 0x8D JUMPI PUSH1 0x20 SWAP1 MLOAD PUSH20 0xC02AAA39B223FE8D0A0E5C4F27EAD9083C756CC2 DUP2 MSTORE RETURN JUMPDEST SWAP1 POP PUSH2 0xCA CALLDATASIZE PUSH2 0x53D JUMP JUMPDEST CALLVALUE ISZERO PUSH2 0x428 JUMPI PUSH2 0x3E8 LT PUSH2 0x3FB JUMPI CALLVALUE PUSH1 0x1 SHR SWAP1 DUP4 MLOAD SWAP3 PUSH2 0xE9 DUP5 PUSH2 0x568 JUMP JUMPDEST PUSH1 0x2 DUP5 MSTORE PUSH1 0x20 SWAP4 DUP6 CALLDATASIZE DUP7 DUP4 ADD CALLDATACOPY PUSH20 0xC02AAA39B223FE8D0A0E5C4F27EAD9083C756CC2 PUSH2 0x114 DUP3 PUSH2 0x5BC JUMP JUMPDEST MSTORE PUSH2 0x11E DUP2 PUSH2 0x5DF JUMP JUMPDEST SWAP3 PUSH1 0x1 DUP1 PUSH1 0xA0 SHL SUB AND DUP1 SWAP4 MSTORE PUSH2 0x12C TIMESTAMP ADD DUP1 TIMESTAMP GT PUSH2 0x3E8 JUMPI PUSH2 0x15C DUP8 MLOAD SWAP3 PUSH4 0x7FF36AB5 PUSH1 0xE0 SHL DUP5 MSTORE DUP10 DUP6 DUP6 ADD MSTORE PUSH1 0x80 PUSH1 0x24 DUP6 ADD MSTORE PUSH1 0x84 DUP5 ADD SWAP1 PUSH2 0x66B JUMP JUMPDEST SWAP5 ADDRESS PUSH1 0x44 DUP5 ADD MSTORE DUP2 PUSH1 0x64 DUP5 ADD MSTORE DUP9 DUP4 DUP1 PUSH20 0x7A250D5630B4CF539739DF2C5DACB4C659F2488D SWAP9 SUB DUP2 DUP5 DUP11 GAS CALL SWAP3 DUP4 ISZERO PUSH2 0x3DE JUMPI DUP10 SWAP4 PUSH2 0x3BA JUMPI JUMPDEST POP PUSH2 0x1A0 DUP4 PUSH2 0x5DF JUMP JUMPDEST MLOAD SWAP1 DUP9 MLOAD SWAP2 PUSH4 0x95EA7B3 PUSH1 0xE0 SHL DUP4 MSTORE DUP8 DUP7 DUP5 ADD MSTORE PUSH1 0x24 DUP4 ADD MSTORE DUP8 DUP3 PUSH1 0x44 DUP2 DUP14 DUP11 GAS CALL DUP1 ISZERO PUSH2 0x3B0 JUMPI PUSH1 0x60 SWAP5 PUSH1 0xC4 SWAP4 PUSH2 0x1DD SWAP3 PUSH2 0x393 JUMPI JUMPDEST POP PUSH2 0x5DF JUMP JUMPDEST MLOAD SWAP1 DUP10 MLOAD SWAP8 DUP9 SWAP5 DUP6 SWAP4 PUSH4 0xF305D719 PUSH1 0xE0 SHL DUP6 MSTORE DUP10 DUP10 DUP7 ADD MSTORE PUSH1 0x24 DUP6 ADD MSTORE DUP13 PUSH1 0x44 DUP6 ADD MSTORE DUP13 PUSH1 0x64 DUP6 ADD MSTORE CALLER PUSH1 0x84 DUP6 ADD MSTORE PUSH1 0xA4 DUP5 ADD MSTORE GAS CALL SWAP3 DUP4 ISZERO PUSH2 0x315 JUMPI DUP7 SWAP4 PUSH2 0x35A JUMPI JUMPDEST POP DUP5 MLOAD PUSH4 0x70A08231 PUSH1 0xE0 SHL DUP2 MSTORE ADDRESS DUP3 DUP3 ADD MSTORE DUP5 DUP2 PUSH1 0x24 DUP2 DUP7 GAS STATICCALL SWAP1 DUP2 ISZERO PUSH2 0x350 JUMPI DUP8 SWAP2 PUSH2 0x31F JUMPI JUMPDEST POP DUP1 PUSH2 0x288 JUMPI JUMPDEST DUP7 PUSH32 0x50E82F857ECE413F502ECF1E6DB36E3F6F1C118BB444DB8409896B1BF1D11E3D PUSH1 0x60 DUP8 DUP8 DUP11 DUP9 DUP2 MLOAD SWAP4 CALLER DUP6 MSTORE DUP5 ADD MSTORE DUP3 ADD MSTORE LOG1 DUP1 RETURN JUMPDEST DUP6 MLOAD SWAP2 PUSH4 0xA9059CBB PUSH1 0xE0 SHL DUP4 MSTORE CALLER SWAP1 DUP4 ADD MSTORE PUSH1 0x24 DUP3 ADD MSTORE DUP4 DUP2 PUSH1 0x44 DUP2 DUP10 DUP7 GAS CALL DUP1 ISZERO PUSH2 0x315 JUMPI SWAP2 PUSH32 0x50E82F857ECE413F502ECF1E6DB36E3F6F1C118BB444DB8409896B1BF1D11E3D SWAP6 SWAP2 PUSH1 0x60 SWAP6 SWAP5 SWAP4 PUSH2 0x2E8 JUMPI JUMPDEST POP SWAP2 SWAP3 SWAP4 DUP2 SWAP6 POP PUSH2 0x250 JUMP JUMPDEST PUSH2 0x307 SWAP1 DUP6 RETURNDATASIZE DUP8 GT PUSH2 0x30E JUMPI JUMPDEST PUSH2 0x2FF DUP2 DUP4 PUSH2 0x59A JUMP JUMPDEST DUP2 ADD SWAP1 PUSH2 0x6A8 JUMP JUMPDEST POP CODESIZE PUSH2 0x2DC JUMP JUMPDEST POP RETURNDATASIZE PUSH2 0x2F5 JUMP JUMPDEST DUP6 MLOAD RETURNDATASIZE DUP9 DUP3 RETURNDATACOPY RETURNDATASIZE SWAP1 REVERT JUMPDEST SWAP1 POP DUP5 DUP2 DUP2 RETURNDATASIZE DUP4 GT PUSH2 0x349 JUMPI JUMPDEST PUSH2 0x336 DUP2 DUP4 PUSH2 0x59A JUMP JUMPDEST DUP2 ADD SUB SLT PUSH2 0x345 JUMPI MLOAD CODESIZE PUSH2 0x249 JUMP JUMPDEST DUP7 DUP1 REVERT JUMPDEST POP RETURNDATASIZE PUSH2 0x32C JUMP JUMPDEST DUP7 MLOAD RETURNDATASIZE DUP10 DUP3 RETURNDATACOPY RETURNDATASIZE SWAP1 REVERT JUMPDEST SWAP1 SWAP3 POP PUSH1 0x60 DUP2 RETURNDATASIZE DUP3 GT PUSH2 0x38B JUMPI JUMPDEST DUP2 PUSH2 0x375 PUSH1 0x60 SWAP4 DUP4 PUSH2 0x59A JUMP JUMPDEST DUP2 ADD SUB SLT PUSH2 0x387 JUMPI DUP5 ADD MLOAD SWAP2 CODESIZE PUSH2 0x221 JUMP JUMPDEST DUP6 DUP1 REVERT JUMPDEST RETURNDATASIZE SWAP2 POP PUSH2 0x368 JUMP JUMPDEST PUSH2 0x3A9 SWAP1 DUP12 RETURNDATASIZE DUP14 GT PUSH2 0x30E JUMPI PUSH2 0x2FF DUP2 DUP4 PUSH2 0x59A JUMP JUMPDEST POP CODESIZE PUSH2 0x1D7 JUMP JUMPDEST DUP10 MLOAD RETURNDATASIZE DUP13 DUP3 RETURNDATACOPY RETURNDATASIZE SWAP1 REVERT JUMPDEST PUSH2 0x3D7 SWAP2 SWAP4 POP RETURNDATASIZE DUP1 DUP12 DUP4 RETURNDATACOPY PUSH2 0x3CF DUP2 DUP4 PUSH2 0x59A JUMP JUMPDEST DUP2 ADD SWAP1 PUSH2 0x5EF JUMP JUMPDEST SWAP2 CODESIZE PUSH2 0x196 JUMP JUMPDEST DUP9 MLOAD RETURNDATASIZE DUP12 DUP3 RETURNDATACOPY RETURNDATASIZE SWAP1 REVERT JUMPDEST PUSH4 0x4E487B71 PUSH1 0xE0 SHL DUP9 MSTORE PUSH1 0x11 DUP4 MSTORE PUSH1 0x24 DUP9 REVERT JUMPDEST POP PUSH1 0x20 PUSH1 0x64 SWAP3 MLOAD SWAP2 PUSH3 0x461BCD PUSH1 0xE5 SHL DUP4 MSTORE DUP3 ADD MSTORE PUSH1 0x7 PUSH1 0x24 DUP3 ADD MSTORE PUSH7 0x4D617820313025 PUSH1 0xC8 SHL PUSH1 0x44 DUP3 ADD MSTORE REVERT JUMPDEST DUP4 MLOAD PUSH3 0x461BCD PUSH1 0xE5 SHL DUP2 MSTORE PUSH1 0x20 DUP2 DUP6 ADD MSTORE PUSH1 0x8 PUSH1 0x24 DUP3 ADD MSTORE PUSH8 0x9CCACAC8408AA89 PUSH1 0xC3 SHL PUSH1 0x44 DUP3 ADD MSTORE PUSH1 0x64 SWAP1 REVERT JUMPDEST SWAP2 SWAP1 SWAP3 POP CALLVALUE PUSH2 0x8D JUMPI PUSH2 0x468 CALLDATASIZE PUSH2 0x53D JUMP JUMPDEST SWAP2 SWAP1 PUSH2 0x473 DUP6 PUSH2 0x568 JUMP JUMPDEST PUSH1 0x2 DUP6 MSTORE DUP6 CALLDATASIZE PUSH1 0x20 DUP8 ADD CALLDATACOPY PUSH20 0xC02AAA39B223FE8D0A0E5C4F27EAD9083C756CC2 PUSH2 0x49C DUP7 PUSH2 0x5BC JUMP JUMPDEST MSTORE PUSH2 0x4A6 DUP6 PUSH2 0x5DF JUMP JUMPDEST SWAP1 PUSH1 0x1 DUP1 PUSH1 0xA0 SHL SUB AND SWAP1 MSTORE PUSH2 0x4D8 DUP6 MLOAD SWAP5 DUP6 SWAP4 DUP5 SWAP4 PUSH4 0xD06CA61F PUSH1 0xE0 SHL DUP6 MSTORE DUP5 ADD MSTORE DUP7 PUSH1 0x24 DUP5 ADD MSTORE PUSH1 0x44 DUP4 ADD SWAP1 PUSH2 0x66B JUMP JUMPDEST SUB DUP2 PUSH20 0x7A250D5630B4CF539739DF2C5DACB4C659F2488D GAS STATICCALL SWAP1 DUP2 ISZERO PUSH2 0x531 JUMPI SWAP1 PUSH2 0x50E SWAP2 DUP5 PUSH1 0x20 SWAP6 SWAP3 PUSH2 0x516 JUMPI JUMPDEST POP POP PUSH2 0x5DF JUMP JUMPDEST MLOAD SWAP1 MLOAD SWAP1 DUP2 MSTORE RETURN JUMPDEST PUSH2 0x52A SWAP3 POP RETURNDATASIZE DUP1 SWAP2 DUP4 RETURNDATACOPY PUSH2 0x3CF DUP2 DUP4 PUSH2 0x59A JUMP JUMPDEST CODESIZE DUP1 PUSH2 0x507 JUMP JUMPDEST POP POP MLOAD SWAP1 RETURNDATASIZE SWAP1 DUP3 RETURNDATACOPY RETURNDATASIZE SWAP1 REVERT JUMPDEST PUSH1 0x40 SWAP1 PUSH1 0x3 NOT ADD SLT PUSH2 0x563 JUMPI PUSH1 0x4 CALLDATALOAD PUSH1 0x1 PUSH1 0x1 PUSH1 0xA0 SHL SUB DUP2 AND DUP2 SUB PUSH2 0x563 JUMPI SWAP1 PUSH1 0x24 CALLDATALOAD SWAP1 JUMP JUMPDEST PUSH1 0x0 DUP1 REVERT JUMPDEST PUSH1 0x60 DUP2 ADD SWAP1 DUP2 LT PUSH8 0xFFFFFFFFFFFFFFFF DUP3 GT OR PUSH2 0x584 JUMPI PUSH1 0x40 MSTORE JUMP JUMPDEST PUSH4 0x4E487B71 PUSH1 0xE0 SHL PUSH1 0x0 MSTORE PUSH1 0x41 PUSH1 0x4 MSTORE PUSH1 0x24 PUSH1 0x0 REVERT JUMPDEST SWAP1 PUSH1 0x1F DUP1 NOT SWAP2 ADD AND DUP2 ADD SWAP1 DUP2 LT PUSH8 0xFFFFFFFFFFFFFFFF DUP3 GT OR PUSH2 0x584 JUMPI PUSH1 0x40 MSTORE JUMP JUMPDEST DUP1 MLOAD ISZERO PUSH2 0x5C9 JUMPI PUSH1 0x20 ADD SWAP1 JUMP JUMPDEST PUSH4 0x4E487B71 PUSH1 0xE0 SHL PUSH1 0x0 MSTORE PUSH1 0x32 PUSH1 0x4 MSTORE PUSH1 0x24 PUSH1 0x0 REVERT JUMPDEST DUP1 MLOAD PUSH1 0x1 LT ISZERO PUSH2 0x5C9 JUMPI PUSH1 0x40 ADD SWAP1 JUMP JUMPDEST SWAP1 PUSH1 0x20 SWAP1 DUP2 DUP4 DUP3 SUB SLT PUSH2 0x563 JUMPI DUP3 MLOAD PUSH8 0xFFFFFFFFFFFFFFFF SWAP4 DUP5 DUP3 GT PUSH2 0x563 JUMPI ADD DUP2 PUSH1 0x1F DUP3 ADD SLT ISZERO PUSH2 0x563 JUMPI DUP1 MLOAD SWAP4 DUP5 GT PUSH2 0x584 JUMPI DUP4 PUSH1 0x5 SHL SWAP1 PUSH1 0x40 MLOAD SWAP5 PUSH2 0x639 DUP6 DUP5 ADD DUP8 PUSH2 0x59A JUMP JUMPDEST DUP6 MSTORE DUP4 DUP1 DUP7 ADD SWAP3 DUP3 ADD ADD SWAP3 DUP4 GT PUSH2 0x563 JUMPI DUP4 ADD SWAP1 JUMPDEST DUP3 DUP3 LT PUSH2 0x65C JUMPI POP POP POP POP SWAP1 JUMP JUMPDEST DUP2 MLOAD DUP2 MSTORE SWAP1 DUP4 ADD SWAP1 DUP4 ADD PUSH2 0x64E JUMP JUMPDEST SWAP1 DUP2 MLOAD DUP1 DUP3 MSTORE PUSH1 0x20 DUP1 DUP1 SWAP4 ADD SWAP4 ADD SWAP2 PUSH1 0x0 JUMPDEST DUP3 DUP2 LT PUSH2 0x68B JUMPI POP POP POP POP SWAP1 JUMP JUMPDEST DUP4 MLOAD PUSH1 0x1 PUSH1 0x1 PUSH1 0xA0 SHL SUB AND DUP6 MSTORE SWAP4 DUP2 ADD SWAP4 SWAP3 DUP2 ADD SWAP3 PUSH1 0x1 ADD PUSH2 0x67D JUMP JUMPDEST SWAP1 DUP2 PUSH1 0x20 SWAP2 SUB SLT PUSH2 0x563 JUMPI MLOAD DUP1 ISZERO ISZERO DUP2 SUB PUSH2 0x563 JUMPI SWAP1 JUMP INVALID LOG2 PUSH5 0x6970667358 0x22 SLT KECCAK256 0x2D STOP PUSH4 0x3BD28E88 STATICCALL 0x4E SWAP14 GASPRICE SWAP12 COINBASE ISZERO 0xC1 PUSH32 0x11C5A09BDB0665EDDE53B585718DBD1564736F6C634300081300330000000000 "},"methodIdentifiers":{"WETH()":"ad5c4648","execute(address,uint256)":"3b89bb86","getTokenAmount(address,uint256)":"115ece4c","router()":"f887ea40"}}}}}