{
  "_format": "hh-sol-artifact-1",
  "contractName": "SimpleSwapAndAddLiquidity",
  "sourceName": "contracts/SwapAndAddLiquidity.sol",
  "abi": [
    {
      "anonymous": false,
      "inputs": [
        {
          "indexed": false,
          "internalType": "address",
          "name": "user",
          "type": "address"
        },
        {
          "indexed": false,
          "internalType": "address",
          "name": "token",
          "type": "address"
        },
        {
          "indexed": false,
          "internalType": "uint256",
          "name": "liquidity",
          "type": "uint256"
        }
      ],
      "name": "Complete",
      "type": "event"
    },
    {
      "inputs": [],
      "name": "WETH",
      "outputs": [
        {
          "internalType": "address",
          "name": "",
          "type": "address"
        }
      ],
      "stateMutability": "view",
      "type": "function"
    },
    {
      "inputs": [
        {
          "internalType": "address",
          "name": "token",
          "type": "address"
        },
        {
          "internalType": "uint256",
          "name": "slippage",
          "type": "uint256"
        }
      ],
      "name": "execute",
      "outputs": [],
      "stateMutability": "payable",
      "type": "function"
    },
    {
      "inputs": [
        {
          "internalType": "address",
          "name": "token",
          "type": "address"
        },
        {
          "internalType": "uint256",
          "name": "ethAmount",
          "type": "uint256"
        }
      ],
      "name": "getTokenAmount",
      "outputs": [
        {
          "internalType": "uint256",
          "name": "",
          "type": "uint256"
        }
      ],
      "stateMutability": "view",
      "type": "function"
    },
    {
      "inputs": [],
      "name": "router",
      "outputs": [
        {
          "internalType": "contract IUniswapV2Router",
          "name": "",
          "type": "address"
        }
      ],
      "stateMutability": "view",
      "type": "function"
    },
    {
      "stateMutability": "payable",
      "type": "receive"
    }
  ],
  "bytecode": "0x60808060405234610016576106f6908161001c8239f35b600080fdfe6080604081815260049182361015610022575b505050361561002057600080fd5b005b600092833560e01c91848363115ece4c1461045657505081633b89bb86146100bf57508063ad5c4648146100915763f887ea40146100605780610012565b3461008d578160031936011261008d5760209051737a250d5630b4cf539739df2c5dacb4c659f2488d8152f35b5080fd5b503461008d578160031936011261008d576020905173c02aaa39b223fe8d0a0e5c4f27ead9083c756cc28152f35b90506100ca3661053d565b3415610428576103e8106103fb573460011c908351926100e984610568565b6002845260209385368683013773c02aaa39b223fe8d0a0e5c4f27ead9083c756cc2610114826105bc565b5261011e816105df565b9260018060a01b031680935261012c42018042116103e85761015c875192637ff36ab560e01b8452898585015260806024850152608484019061066b565b94306044840152816064840152888380737a250d5630b4cf539739df2c5dacb4c659f2488d980381848a5af19283156103de5789936103ba575b506101a0836105df565b519088519163095ea7b360e01b83528786840152602483015287826044818d8a5af180156103b05760609460c4936101dd92610393575b506105df565b51908951978894859363f305d71960e01b8552898986015260248501528c60448501528c606485015233608485015260a48401525af192831561031557869361035a575b5084516370a0823160e01b815230828201528481602481865afa90811561035057879161031f575b5080610288575b867f50e82f857ece413f502ecf1e6db36e3f6f1c118bb444db8409896b1bf1d11e3d606087878a88815193338552840152820152a180f35b85519163a9059cbb60e01b835233908301526024820152838160448189865af1801561031557917f50e82f857ece413f502ecf1e6db36e3f6f1c118bb444db8409896b1bf1d11e3d959160609594936102e8575b50919293819550610250565b61030790853d871161030e575b6102ff818361059a565b8101906106a8565b50386102dc565b503d6102f5565b85513d88823e3d90fd5b90508481813d8311610349575b610336818361059a565b81010312610345575138610249565b8680fd5b503d61032c565b86513d89823e3d90fd5b9092506060813d821161038b575b816103756060938361059a565b81010312610387578401519138610221565b8580fd5b3d9150610368565b6103a9908b3d8d1161030e576102ff818361059a565b50386101d7565b89513d8c823e3d90fd5b6103d79193503d808b833e6103cf818361059a565b8101906105ef565b9138610196565b88513d8b823e3d90fd5b634e487b7160e01b885260118352602488fd5b506020606492519162461bcd60e51b835282015260076024820152664d61782031302560c81b6044820152fd5b835162461bcd60e51b8152602081850152600860248201526709ccacac8408aa8960c31b6044820152606490fd5b919092503461008d576104683661053d565b919061047385610568565b600285528536602087013773c02aaa39b223fe8d0a0e5c4f27ead9083c756cc261049c866105bc565b526104a6856105df565b9060018060a01b031690526104d88551948593849363d06ca61f60e01b8552840152866024840152604483019061066b565b0381737a250d5630b4cf539739df2c5dacb4c659f2488d5afa908115610531579061050e918460209592610516575b50506105df565b519051908152f35b61052a92503d8091833e6103cf818361059a565b3880610507565b505051903d90823e3d90fd5b6040906003190112610563576004356001600160a01b0381168103610563579060243590565b600080fd5b6060810190811067ffffffffffffffff82111761058457604052565b634e487b7160e01b600052604160045260246000fd5b90601f8019910116810190811067ffffffffffffffff82111761058457604052565b8051156105c95760200190565b634e487b7160e01b600052603260045260246000fd5b8051600110156105c95760400190565b90602090818382031261056357825167ffffffffffffffff93848211610563570181601f82011215610563578051938411610584578360051b90604051946106398584018761059a565b85528380860192820101928311610563578301905b82821061065c575050505090565b8151815290830190830161064e565b90815180825260208080930193019160005b82811061068b575050505090565b83516001600160a01b03168552938101939281019260010161067d565b9081602091031261056357518015158103610563579056fea26469706673582212202d00633bd28e88fa4e9d3a9b4115c17f11c5a09bdb0665edde53b585718dbd1564736f6c63430008130033",
  "linkReferences": {},
  "deployedLinkReferences": {}
}